{
  "contractName": "Counter",
  "abi": [
    {
      "inputs": [],
      "payable": false,
      "stateMutability": "nonpayable",
      "type": "constructor"
    },
    {
      "constant": false,
      "inputs": [],
      "name": "increment",
      "outputs": [],
      "payable": false,
      "stateMutability": "nonpayable",
      "type": "function"
    },
    {
      "constant": false,
      "inputs": [],
      "name": "test2",
      "outputs": [],
      "payable": false,
      "stateMutability": "nonpayable",
      "type": "function"
    },
    {
      "constant": true,
      "inputs": [],
      "name": "getCounter",
      "outputs": [
        {
          "internalType": "uint256",
          "name": "",
          "type": "uint256"
        }
      ],
      "payable": false,
      "stateMutability": "view",
      "type": "function"
    },
    {
      "constant": true,
      "inputs": [],
      "name": "helloWorld",
      "outputs": [
        {
          "internalType": "string",
          "name": "",
          "type": "string"
        }
      ],
      "payable": false,
      "stateMutability": "pure",
      "type": "function"
    }
  ],
  "bytecode": "0x608060405234801561001057600080fd5b5060036000819055506101a7806100286000396000f3fe608060405234801561001057600080fd5b506004361061004c5760003560e01c806366e41cb7146100515780638ada066e1461005b578063c605f76c14610079578063d09de08a146100fc575b600080fd5b610059610106565b005b610063610119565b6040518082815260200191505060405180910390f35b610081610122565b6040518080602001828103825283818151815260200191508051906020019080838360005b838110156100c15780820151818401526020810190506100a6565b50505050905090810190601f1680156100ee5780820380516001836020036101000a031916815260200191505b509250505060405180910390f35b61010461015f565b005b6000808154809291906001019190505550565b60008054905090565b60606040518060400160405280601081526020017f564f54453a2048616c6c6f204e69636f00000000000000000000000000000000815250905090565b600080815480929190600101919050555056fea265627a7a723158200fbf26f229b133e2ea50c378cf5daecf9049f20aac806d3ce29201e7926b44e764736f6c63430005100032",
  "source": "pragma solidity >=0.4.22 <0.8.0;\n\ncontract Counter {\n    uint256 counter;\n\n    constructor() public {\n        counter = 3; // Initialise the counter to 0\n    }\n\n    function increment() public {\n        counter++;\n    }\n\n    function test2() public {\n        counter++;\n    }\n\n    function getCounter() public view returns (uint256) {\n        return counter;\n    }\n\n    function helloWorld() public pure returns (string memory) {\n        return \"VOTE: Hallo Nico\";\n    }\n}\n",
  "sourcePath": "/Users/michaelfrank/Documents/GitHub/github-blockchain-voting-extension/example/contracts/Counter.sol",
  "compiler": {
    "name": "solc",
    "version": "0.5.16+commit.9c3226ce.Emscripten.clang"
  },
  "schemaVersion": "3.2.4",
  "updatedAt": "2020-11-19T17:15:36.759Z",
  "networkType": "ethereum",
  "devdoc": {
    "methods": {}
  },
  "userdoc": {
    "methods": {}
  }
}