{
  "contractName": "Counter",
  "abi": [
    {
      "inputs": [],
      "payable": false,
      "stateMutability": "nonpayable",
      "type": "constructor"
    },
    {
      "constant": true,
      "inputs": [
        {
          "internalType": "uint256",
          "name": "",
          "type": "uint256"
        }
      ],
      "name": "polls",
      "outputs": [
        {
          "internalType": "string",
          "name": "pqLink",
          "type": "string"
        },
        {
          "internalType": "string",
          "name": "pqTitle",
          "type": "string"
        },
        {
          "internalType": "uint256",
          "name": "proVotes",
          "type": "uint256"
        },
        {
          "internalType": "uint256",
          "name": "contraVotes",
          "type": "uint256"
        }
      ],
      "payable": false,
      "stateMutability": "view",
      "type": "function"
    },
    {
      "constant": false,
      "inputs": [
        {
          "internalType": "string",
          "name": "_pqLink",
          "type": "string"
        },
        {
          "internalType": "string",
          "name": "_pqTitle",
          "type": "string"
        }
      ],
      "name": "addNewPoll",
      "outputs": [],
      "payable": false,
      "stateMutability": "nonpayable",
      "type": "function"
    },
    {
      "constant": true,
      "inputs": [],
      "name": "getPollsLength",
      "outputs": [
        {
          "internalType": "uint256",
          "name": "",
          "type": "uint256"
        }
      ],
      "payable": false,
      "stateMutability": "view",
      "type": "function"
    },
    {
      "constant": true,
      "inputs": [],
      "name": "helloWorld",
      "outputs": [
        {
          "internalType": "string",
          "name": "",
          "type": "string"
        }
      ],
      "payable": false,
      "stateMutability": "pure",
      "type": "function"
    }
  ],
  "bytecode": "0x608060405234801561001057600080fd5b506000604051806080016040528060405180602001604052806000815250815260200160405180602001604052806000815250815260200160008152602001600081525090806001815401808255809150509060018203906000526020600020906004020160009091929091909150600082015181600001908051906020019061009b9291906100d5565b5060208201518160010190805190602001906100b89291906100d5565b50604082015181600201556060820151816003015550505061017a565b828054600181600116156101000203166002900490600052602060002090601f016020900481019282601f1061011657805160ff1916838001178555610144565b82800160010185558215610144579182015b82811115610143578251825591602001919060010190610128565b5b5090506101519190610155565b5090565b61017791905b8082111561017357600081600090555060010161015b565b5090565b90565b610788806101896000396000f3fe608060405234801561001057600080fd5b506004361061004c5760003560e01c8063226f03e514610051578063ac2f0074146101a3578063c605f76c146102c4578063d4f0ca1f14610347575b600080fd5b6101a16004803603604081101561006757600080fd5b810190808035906020019064010000000081111561008457600080fd5b82018360208201111561009657600080fd5b803590602001918460018302840111640100000000831117156100b857600080fd5b91908080601f016020809104026020016040519081016040528093929190818152602001838380828437600081840152601f19601f8201169050808301925050505050505091929192908035906020019064010000000081111561011b57600080fd5b82018360208201111561012d57600080fd5b8035906020019184600183028401116401000000008311171561014f57600080fd5b91908080601f016020809104026020016040519081016040528093929190818152602001838380828437600081840152601f19601f820116905080830192505050505050509192919290505050610365565b005b6101cf600480360360208110156101b957600080fd5b81019080803590602001909291905050506104f8565b604051808060200180602001858152602001848152602001838103835287818151815260200191508051906020019080838360005b8381101561021f578082015181840152602081019050610204565b50505050905090810190601f16801561024c5780820380516001836020036101000a031916815260200191505b50838103825286818151815260200191508051906020019080838360005b8381101561028557808201518184015260208101905061026a565b50505050905090810190601f1680156102b25780820380516001836020036101000a031916815260200191505b50965050505050505060405180910390f35b6102cc610665565b6040518080602001828103825283818151815260200191508051906020019080838360005b8381101561030c5780820151818401526020810190506102f1565b50505050905090810190601f1680156103395780820380516001836020036101000a031916815260200191505b509250505060405180910390f35b61034f6106a2565b6040518082815260200191505060405180910390f35b60008251116103dc576040517f08c379a000000000000000000000000000000000000000000000000000000000815260040180806020018281038252601e8152602001807f546865206c696e6b206e6565647320746f2062652070726f76696465642e000081525060200191505060405180910390fd5b6000815111610453576040517f08c379a000000000000000000000000000000000000000000000000000000000815260040180806020018281038252601f8152602001807f546865207469746c65206e6565647320746f2062652070726f76696465642e0081525060200191505060405180910390fd5b600060405180608001604052808481526020018381526020016000815260200160008152509080600181540180825580915050906001820390600052602060002090600402016000909192909190915060008201518160000190805190602001906104bf9291906106ae565b5060208201518160010190805190602001906104dc9291906106ae565b5060408201518160020155606082015181600301555050505050565b6000818154811061050557fe5b9060005260206000209060040201600091509050806000018054600181600116156101000203166002900480601f0160208091040260200160405190810160405280929190818152602001828054600181600116156101000203166002900480156105b15780601f10610586576101008083540402835291602001916105b1565b820191906000526020600020905b81548152906001019060200180831161059457829003601f168201915b505050505090806001018054600181600116156101000203166002900480601f01602080910402602001604051908101604052809291908181526020018280546001816001161561010002031660029004801561064f5780601f106106245761010080835404028352916020019161064f565b820191906000526020600020905b81548152906001019060200180831161063257829003601f168201915b5050505050908060020154908060030154905084565b60606040518060400160405280601081526020017f564f54453a2048616c6c6f204e69636f00000000000000000000000000000000815250905090565b60008080549050905090565b828054600181600116156101000203166002900490600052602060002090601f016020900481019282601f106106ef57805160ff191683800117855561071d565b8280016001018555821561071d579182015b8281111561071c578251825591602001919060010190610701565b5b50905061072a919061072e565b5090565b61075091905b8082111561074c576000816000905550600101610734565b5090565b9056fea265627a7a72315820160e4d02dc7f9eed900fd063af40d00e22212e5415ea5021277adcde442e4ec264736f6c63430005100032",
  "source": "pragma solidity >=0.4.22 <0.8.0;\n\ncontract Counter {\n\n    struct Poll {\n        string pqLink;\n        string pqTitle;\n        uint256 proVotes;\n        uint256 contraVotes;\n    }\n\n    Poll[] public polls;\n\n    constructor() public {\n        polls.push(Poll({pqLink: \"\", pqTitle: \"\", proVotes: 0, contraVotes: 0}));\n    }\n\n    function addNewPoll(string memory _pqLink, string memory _pqTitle) public {\n        require(bytes(_pqLink).length > 0, \"The link needs to be provided.\");\n        require(bytes(_pqTitle).length > 0, \"The title needs to be provided.\");\n\n        polls.push(Poll({pqLink: _pqLink, pqTitle: _pqTitle, proVotes: 0, contraVotes: 0}));\n    }\n\n    function getPollsLength() view public returns (uint){\n        return polls.length;\n    }\n\n    function helloWorld() public pure returns (string memory) {\n        return \"VOTE: Hallo Nico\";\n    }\n}\n",
  "sourcePath": "/Users/michaelfrank/Documents/GitHub/github-blockchain-voting-extension/proof_of_concepts/base_blockchain_extension_interactions/contracts/Counter.sol",
  "compiler": {
    "name": "solc",
    "version": "0.5.16+commit.9c3226ce.Emscripten.clang"
  },
  "schemaVersion": "3.2.4",
  "updatedAt": "2020-11-30T12:21:36.013Z",
  "networkType": "ethereum",
  "devdoc": {
    "methods": {}
  },
  "userdoc": {
    "methods": {}
  }
}