{
  "contractName": "Incrementer",
  "abi": [
    {
      "inputs": [],
      "payable": false,
      "stateMutability": "nonpayable",
      "type": "constructor"
    },
    {
      "constant": true,
      "inputs": [],
      "name": "number",
      "outputs": [
        {
          "internalType": "uint256",
          "name": "",
          "type": "uint256"
        }
      ],
      "payable": false,
      "stateMutability": "view",
      "type": "function"
    },
    {
      "constant": false,
      "inputs": [
        {
          "internalType": "uint256",
          "name": "_value",
          "type": "uint256"
        }
      ],
      "name": "increment",
      "outputs": [],
      "payable": false,
      "stateMutability": "nonpayable",
      "type": "function"
    },
    {
      "constant": false,
      "inputs": [],
      "name": "reset",
      "outputs": [],
      "payable": false,
      "stateMutability": "nonpayable",
      "type": "function"
    },
    {
      "constant": true,
      "inputs": [],
      "name": "getPollsLength",
      "outputs": [
        {
          "internalType": "uint256",
          "name": "",
          "type": "uint256"
        }
      ],
      "payable": false,
      "stateMutability": "view",
      "type": "function"
    }
  ],
  "bytecode": "0x608060405234801561001057600080fd5b50600260008190555061010d806100286000396000f3fe6080604052348015600f57600080fd5b506004361060465760003560e01c80637cf5dab014604b5780638381f58a146076578063d4f0ca1f146092578063d826f88f1460ae575b600080fd5b607460048036036020811015605f57600080fd5b810190808035906020019092919050505060b6565b005b607c60c0565b6040518082815260200191505060405180910390f35b609860c6565b6040518082815260200191505060405180910390f35b60b460cf565b005b8060008190555050565b60005481565b60008054905090565b6000808190555056fea265627a7a7231582065e643b3faaad803f9c08f2cbc76cbefb0b0cebfa1e554b07f7fe723cc3737b364736f6c63430005100032",
  "source": "pragma solidity >=0.4.22 <0.8.0;\n\ncontract Incrementer {\n    uint256 public number;\n\n    constructor() public {\n        number = 2;\n    }\n\n    function increment(uint256 _value) public {\n        number = _value;\n    }\n\n    function reset() public {\n        number = 0;\n    }\n\n    function getPollsLength() public view returns (uint256) {\n        return number;\n    }\n}\n",
  "sourcePath": "/Users/michaelfrank/Documents/GitHub/github-blockchain-voting-extension/proof_of_concepts/base_blockchain_extension_interactions/contracts/Incrementer.sol",
  "compiler": {
    "name": "solc",
    "version": "0.5.16+commit.9c3226ce.Emscripten.clang"
  },
  "schemaVersion": "3.2.4",
  "updatedAt": "2021-02-28T19:03:26.487Z",
  "networkType": "ethereum",
  "devdoc": {
    "methods": {}
  },
  "userdoc": {
    "methods": {}
  }
}