{
  "contractName": "Poll",
  "abi": [
    {
      "inputs": [],
      "payable": false,
      "stateMutability": "nonpayable",
      "type": "constructor"
    },
    {
      "constant": true,
      "inputs": [
        {
          "internalType": "uint256",
          "name": "",
          "type": "uint256"
        }
      ],
      "name": "bounties",
      "outputs": [
        {
          "internalType": "uint256",
          "name": "id",
          "type": "uint256"
        },
        {
          "internalType": "address payable",
          "name": "staker",
          "type": "address"
        },
        {
          "internalType": "uint256",
          "name": "weight",
          "type": "uint256"
        }
      ],
      "payable": false,
      "stateMutability": "view",
      "type": "function"
    },
    {
      "constant": true,
      "inputs": [],
      "name": "bounty",
      "outputs": [
        {
          "internalType": "uint256",
          "name": "",
          "type": "uint256"
        }
      ],
      "payable": false,
      "stateMutability": "view",
      "type": "function"
    },
    {
      "constant": true,
      "inputs": [],
      "name": "claimerAddress",
      "outputs": [
        {
          "internalType": "address payable",
          "name": "",
          "type": "address"
        }
      ],
      "payable": false,
      "stateMutability": "view",
      "type": "function"
    },
    {
      "constant": true,
      "inputs": [],
      "name": "claimerName",
      "outputs": [
        {
          "internalType": "string",
          "name": "",
          "type": "string"
        }
      ],
      "payable": false,
      "stateMutability": "view",
      "type": "function"
    },
    {
      "constant": true,
      "inputs": [],
      "name": "collateral",
      "outputs": [
        {
          "internalType": "uint256",
          "name": "",
          "type": "uint256"
        }
      ],
      "payable": false,
      "stateMutability": "view",
      "type": "function"
    },
    {
      "constant": true,
      "inputs": [
        {
          "internalType": "uint256",
          "name": "",
          "type": "uint256"
        }
      ],
      "name": "votes",
      "outputs": [
        {
          "internalType": "uint256",
          "name": "id",
          "type": "uint256"
        },
        {
          "internalType": "bool",
          "name": "decision",
          "type": "bool"
        },
        {
          "internalType": "address payable",
          "name": "delegate",
          "type": "address"
        },
        {
          "internalType": "uint256",
          "name": "weight",
          "type": "uint256"
        }
      ],
      "payable": false,
      "stateMutability": "view",
      "type": "function"
    },
    {
      "constant": false,
      "inputs": [
        {
          "internalType": "bool",
          "name": "desc",
          "type": "bool"
        },
        {
          "internalType": "uint256",
          "name": "value",
          "type": "uint256"
        },
        {
          "internalType": "address payable",
          "name": "addr",
          "type": "address"
        }
      ],
      "name": "vote",
      "outputs": [],
      "payable": true,
      "stateMutability": "payable",
      "type": "function"
    },
    {
      "constant": false,
      "inputs": [
        {
          "internalType": "uint256",
          "name": "index",
          "type": "uint256"
        },
        {
          "internalType": "uint256",
          "name": "stake",
          "type": "uint256"
        }
      ],
      "name": "transferStakes",
      "outputs": [],
      "payable": true,
      "stateMutability": "payable",
      "type": "function"
    },
    {
      "constant": false,
      "inputs": [
        {
          "internalType": "uint256",
          "name": "index",
          "type": "uint256"
        },
        {
          "internalType": "uint256",
          "name": "stake",
          "type": "uint256"
        }
      ],
      "name": "transferBounty",
      "outputs": [],
      "payable": true,
      "stateMutability": "payable",
      "type": "function"
    },
    {
      "constant": false,
      "inputs": [
        {
          "internalType": "address payable",
          "name": "addr",
          "type": "address"
        },
        {
          "internalType": "uint256",
          "name": "value",
          "type": "uint256"
        }
      ],
      "name": "addBounty",
      "outputs": [],
      "payable": true,
      "stateMutability": "payable",
      "type": "function"
    },
    {
      "constant": false,
      "inputs": [
        {
          "internalType": "address payable",
          "name": "addr",
          "type": "address"
        },
        {
          "internalType": "string",
          "name": "name",
          "type": "string"
        },
        {
          "internalType": "uint256",
          "name": "value",
          "type": "uint256"
        }
      ],
      "name": "claimIssue",
      "outputs": [],
      "payable": true,
      "stateMutability": "payable",
      "type": "function"
    },
    {
      "constant": false,
      "inputs": [],
      "name": "resetClaim",
      "outputs": [],
      "payable": false,
      "stateMutability": "nonpayable",
      "type": "function"
    },
    {
      "constant": true,
      "inputs": [],
      "name": "getVotesLength",
      "outputs": [
        {
          "internalType": "uint256",
          "name": "",
          "type": "uint256"
        }
      ],
      "payable": false,
      "stateMutability": "view",
      "type": "function"
    },
    {
      "constant": true,
      "inputs": [],
      "name": "getBountiesLength",
      "outputs": [
        {
          "internalType": "uint256",
          "name": "",
          "type": "uint256"
        }
      ],
      "payable": false,
      "stateMutability": "view",
      "type": "function"
    }
  ],
  "bytecode": "0x6080604052600060025560006003556040518060200160405280600081525060049080519060200190610033929190610268565b507328cfba097ff9bb9d904471c493b032df45b9f953600560006101000a81548173ffffffffffffffffffffffffffffffffffffffff021916908373ffffffffffffffffffffffffffffffffffffffff16021790555034801561009557600080fd5b5060016040518060600160405280600081526020017328cfba097ff9bb9d904471c493b032df45b9f95373ffffffffffffffffffffffffffffffffffffffff1681526020016000815250908060018154018082558091505090600182039060005260206000209060030201600090919290919091506000820151816000015560208201518160010160006101000a81548173ffffffffffffffffffffffffffffffffffffffff021916908373ffffffffffffffffffffffffffffffffffffffff1602179055506040820151816002015550505060006040518060800160405280600081526020016001151581526020017328cfba097ff9bb9d904471c493b032df45b9f95373ffffffffffffffffffffffffffffffffffffffff1681526020016000815250908060018154018082558091505090600182039060005260206000209060030201600090919290919091506000820151816000015560208201518160010160006101000a81548160ff02191690831515021790555060408201518160010160016101000a81548173ffffffffffffffffffffffffffffffffffffffff021916908373ffffffffffffffffffffffffffffffffffffffff1602179055506060820151816002015550505061030d565b828054600181600116156101000203166002900490600052602060002090601f016020900481019282601f106102a957805160ff19168380011785556102d7565b828001600101855582156102d7579182015b828111156102d65782518255916020019190600101906102bb565b5b5090506102e491906102e8565b5090565b61030a91905b808211156103065760008160009055506001016102ee565b5090565b90565b610bf08061031c6000396000f3fe6080604052600436106100dd5760003560e01c8063899a1e361161007f578063dc2f874411610059578063dc2f8744146103d5578063e8c35c721461045e578063ec9a01fe14610543578063f962b9161461056e576100dd565b8063899a1e3614610331578063943dfef11461037f578063d8dfeb45146103aa576100dd565b80635df81330116100bb5780635df813301461015c57806361ebccfd146101f057806365b768fa1461024a5780636a7300c5146102a1576100dd565b8063267e6529146100e2578063553ea3e91461010d5780635ab77cb314610124575b600080fd5b3480156100ee57600080fd5b506100f76105a6565b6040518082815260200191505060405180910390f35b34801561011957600080fd5b506101226105b2565b005b61015a6004803603604081101561013a57600080fd5b810190808035906020019092919080359060200190929190505050610644565b005b34801561016857600080fd5b506101956004803603602081101561017f57600080fd5b81019080803590602001909291905050506106cd565b60405180858152602001841515151581526020018373ffffffffffffffffffffffffffffffffffffffff1673ffffffffffffffffffffffffffffffffffffffff16815260200182815260200194505050505060405180910390f35b6102486004803603606081101561020657600080fd5b8101908080351515906020019092919080359060200190929190803573ffffffffffffffffffffffffffffffffffffffff169060200190929190505050610737565b005b34801561025657600080fd5b5061025f610825565b604051808273ffffffffffffffffffffffffffffffffffffffff1673ffffffffffffffffffffffffffffffffffffffff16815260200191505060405180910390f35b3480156102ad57600080fd5b506102b661084b565b6040518080602001828103825283818151815260200191508051906020019080838360005b838110156102f65780820151818401526020810190506102db565b50505050905090810190601f1680156103235780820380516001836020036101000a031916815260200191505b509250505060405180910390f35b61037d6004803603604081101561034757600080fd5b81019080803573ffffffffffffffffffffffffffffffffffffffff169060200190929190803590602001909291905050506108e9565b005b34801561038b57600080fd5b506103946109b9565b6040518082815260200191505060405180910390f35b3480156103b657600080fd5b506103bf6109bf565b6040518082815260200191505060405180910390f35b3480156103e157600080fd5b5061040e600480360360208110156103f857600080fd5b81019080803590602001909291905050506109c5565b604051808481526020018373ffffffffffffffffffffffffffffffffffffffff1673ffffffffffffffffffffffffffffffffffffffff168152602001828152602001935050505060405180910390f35b6105416004803603606081101561047457600080fd5b81019080803573ffffffffffffffffffffffffffffffffffffffff169060200190929190803590602001906401000000008111156104b157600080fd5b8201836020820111156104c357600080fd5b803590602001918460018302840111640100000000831117156104e557600080fd5b91908080601f016020809104026020016040519081016040528093929190818152602001838380828437600081840152601f19601f82011690508083019250505050505050919291929080359060200190929190505050610a1c565b005b34801561054f57600080fd5b50610558610a80565b6040518082815260200191505060405180910390f35b6105a46004803603604081101561058457600080fd5b810190808035906020019092919080359060200190929190505050610a8d565b005b60008080549050905090565b60035460025401600281905550600060038190555060405180602001604052806000815250600490805190602001906105ec929190610b16565b507328cfba097ff9bb9d904471c493b032df45b9f953600560006101000a81548173ffffffffffffffffffffffffffffffffffffffff021916908373ffffffffffffffffffffffffffffffffffffffff160217905550565b6000828154811061065157fe5b906000526020600020906003020160010160019054906101000a900473ffffffffffffffffffffffffffffffffffffffff1673ffffffffffffffffffffffffffffffffffffffff166108fc829081150290604051600060405180830381858888f193505050501580156106c8573d6000803e3d6000fd5b505050565b600081815481106106da57fe5b90600052602060002090600302016000915090508060000154908060010160009054906101000a900460ff16908060010160019054906101000a900473ffffffffffffffffffffffffffffffffffffffff16908060020154905084565b60006040518060800160405280600080549050815260200185151581526020018373ffffffffffffffffffffffffffffffffffffffff16815260200184815250908060018154018082558091505090600182039060005260206000209060030201600090919290919091506000820151816000015560208201518160010160006101000a81548160ff02191690831515021790555060408201518160010160016101000a81548173ffffffffffffffffffffffffffffffffffffffff021916908373ffffffffffffffffffffffffffffffffffffffff16021790555060608201518160020155505050505050565b600560009054906101000a900473ffffffffffffffffffffffffffffffffffffffff1681565b60048054600181600116156101000203166002900480601f0160208091040260200160405190810160405280929190818152602001828054600181600116156101000203166002900480156108e15780601f106108b6576101008083540402835291602001916108e1565b820191906000526020600020905b8154815290600101906020018083116108c457829003601f168201915b505050505081565b6001604051806060016040528060018054905081526020018473ffffffffffffffffffffffffffffffffffffffff16815260200183815250908060018154018082558091505090600182039060005260206000209060030201600090919290919091506000820151816000015560208201518160010160006101000a81548173ffffffffffffffffffffffffffffffffffffffff021916908373ffffffffffffffffffffffffffffffffffffffff1602179055506040820151816002015550505080600254016002819055505050565b60025481565b60035481565b600181815481106109d257fe5b90600052602060002090600302016000915090508060000154908060010160009054906101000a900473ffffffffffffffffffffffffffffffffffffffff16908060020154905083565b806003819055508160049080519060200190610a39929190610b16565b5082600560006101000a81548173ffffffffffffffffffffffffffffffffffffffff021916908373ffffffffffffffffffffffffffffffffffffffff160217905550505050565b6000600180549050905090565b60018281548110610a9a57fe5b906000526020600020906003020160010160009054906101000a900473ffffffffffffffffffffffffffffffffffffffff1673ffffffffffffffffffffffffffffffffffffffff166108fc829081150290604051600060405180830381858888f19350505050158015610b11573d6000803e3d6000fd5b505050565b828054600181600116156101000203166002900490600052602060002090601f016020900481019282601f10610b5757805160ff1916838001178555610b85565b82800160010185558215610b85579182015b82811115610b84578251825591602001919060010190610b69565b5b509050610b929190610b96565b5090565b610bb891905b80821115610bb4576000816000905550600101610b9c565b5090565b9056fea265627a7a72315820f0bf48f7c493de8b26de779027749aae7e0a44012191f053cfcb5e933983ea9064736f6c63430005100032",
  "source": "pragma solidity >=0.4.22 <0.8.0;\n\ncontract Poll {\n    struct Vote {\n        uint256 id;\n        bool decision;\n        address payable delegate;\n        uint256 weight;\n    }\n\n    struct Bounty {\n        uint256 id;\n        address payable staker;\n        uint256 weight;\n    }\n\n    Vote[] public votes;\n    Bounty[] public bounties;\n\n    uint256 public bounty = 0;\n    uint256 public collateral = 0;\n    string public claimerName = \"\";\n    address payable public claimerAddress =\n        0x28CfbA097FF9bb9D904471c493b032Df45B9f953;\n\n    constructor() public {\n        bounties.push(\n            Bounty({\n                id: 0,\n                staker: 0x28CfbA097FF9bb9D904471c493b032Df45B9f953,\n                weight: 0\n            })\n        );\n\n        votes.push(\n            Vote({\n                id: 0,\n                decision: true,\n                delegate: 0x28CfbA097FF9bb9D904471c493b032Df45B9f953,\n                weight: 0\n            })\n        );\n    }\n\n    function vote(\n        bool desc,\n        uint256 value,\n        address payable addr\n    ) public payable {\n        votes.push(\n            Vote({\n                id: votes.length,\n                decision: desc,\n                delegate: addr,\n                weight: value\n            })\n        );\n    }\n\n    function transferStakes(uint256 index, uint256 stake) public payable {\n        votes[index].delegate.transfer(stake);\n    }\n\n    function transferBounty(uint256 index, uint256 stake) public payable {\n        bounties[index].staker.transfer(stake);\n    }\n\n    function addBounty(address payable addr, uint256 value) public payable {\n        bounties.push(\n            Bounty({id: bounties.length, staker: addr, weight: value})\n        );\n        bounty = bounty + value;\n    }\n\n    function claimIssue(\n        address payable addr,\n        string memory name,\n        uint256 value\n    ) public payable {\n        collateral = value;\n        claimerName = name;\n        claimerAddress = addr;\n    }\n\n    function resetClaim() public {\n        bounty = bounty + collateral;\n        collateral = 0;\n        claimerName = \"\";\n        claimerAddress = 0x28CfbA097FF9bb9D904471c493b032Df45B9f953;\n    }\n\n    function getVotesLength() public view returns (uint256) {\n        return votes.length;\n    }\n\n    function getBountiesLength() public view returns (uint256) {\n        return bounties.length;\n    }\n}\n",
  "sourcePath": "/Users/michaelfrank/Documents/GitHub/github-blockchain-voting-extension/proof_of_concepts/base_blockchain_extension_interactions/contracts/Poll.sol",
  "compiler": {
    "name": "solc",
    "version": "0.5.16+commit.9c3226ce.Emscripten.clang"
  },
  "schemaVersion": "3.2.4",
  "updatedAt": "2021-02-28T19:03:26.492Z",
  "networkType": "ethereum",
  "devdoc": {
    "methods": {}
  },
  "userdoc": {
    "methods": {}
  }
}