{
  "contractName": "PollManager",
  "abi": [
    {
      "inputs": [],
      "payable": false,
      "stateMutability": "nonpayable",
      "type": "constructor"
    },
    {
      "constant": true,
      "inputs": [
        {
          "internalType": "uint256",
          "name": "",
          "type": "uint256"
        }
      ],
      "name": "polls",
      "outputs": [
        {
          "internalType": "uint256",
          "name": "id",
          "type": "uint256"
        },
        {
          "internalType": "uint256",
          "name": "rpId",
          "type": "uint256"
        },
        {
          "internalType": "uint256",
          "name": "pqId",
          "type": "uint256"
        },
        {
          "internalType": "string",
          "name": "poll_contract_address",
          "type": "string"
        },
        {
          "internalType": "bool",
          "name": "open",
          "type": "bool"
        },
        {
          "internalType": "string",
          "name": "timestamp",
          "type": "string"
        }
      ],
      "payable": false,
      "stateMutability": "view",
      "type": "function"
    },
    {
      "constant": false,
      "inputs": [
        {
          "internalType": "uint256",
          "name": "_rpId",
          "type": "uint256"
        },
        {
          "internalType": "uint256",
          "name": "_pqId",
          "type": "uint256"
        },
        {
          "internalType": "string",
          "name": "addr",
          "type": "string"
        },
        {
          "internalType": "string",
          "name": "_timestamp",
          "type": "string"
        }
      ],
      "name": "addPoll",
      "outputs": [],
      "payable": false,
      "stateMutability": "nonpayable",
      "type": "function"
    },
    {
      "constant": false,
      "inputs": [
        {
          "internalType": "uint256",
          "name": "index",
          "type": "uint256"
        }
      ],
      "name": "closePoll",
      "outputs": [],
      "payable": false,
      "stateMutability": "nonpayable",
      "type": "function"
    },
    {
      "constant": true,
      "inputs": [],
      "name": "getPollsLength",
      "outputs": [
        {
          "internalType": "uint256",
          "name": "",
          "type": "uint256"
        }
      ],
      "payable": false,
      "stateMutability": "view",
      "type": "function"
    },
    {
      "constant": true,
      "inputs": [],
      "name": "helloWorld",
      "outputs": [
        {
          "internalType": "string",
          "name": "",
          "type": "string"
        }
      ],
      "payable": false,
      "stateMutability": "pure",
      "type": "function"
    }
  ],
  "bytecode": "0x608060405234801561001057600080fd5b5060006040518060c001604052806000815260200160008152602001600081526020016040518060400160405280600381526020017f30783000000000000000000000000000000000000000000000000000000000008152508152602001600015158152602001604051806020016040528060008152508152509080600181540180825580915050906001820390600052602060002090600602016000909192909190915060008201518160000155602082015181600101556040820151816002015560608201518160030190805190602001906100ef929190610135565b5060808201518160040160006101000a81548160ff02191690831515021790555060a082015181600501908051906020019061012c929190610135565b505050506101da565b828054600181600116156101000203166002900490600052602060002090601f016020900481019282601f1061017657805160ff19168380011785556101a4565b828001600101855582156101a4579182015b828111156101a3578251825591602001919060010190610188565b5b5090506101b191906101b5565b5090565b6101d791905b808211156101d35760008160009055506001016101bb565b5090565b90565b610789806101e96000396000f3fe608060405234801561001057600080fd5b50600436106100575760003560e01c806327bf2ec91461005c5780639534e637146101c2578063ac2f0074146101f0578063c605f76c14610323578063d4f0ca1f146103a6575b600080fd5b6101c06004803603608081101561007257600080fd5b810190808035906020019092919080359060200190929190803590602001906401000000008111156100a357600080fd5b8201836020820111156100b557600080fd5b803590602001918460018302840111640100000000831117156100d757600080fd5b91908080601f016020809104026020016040519081016040528093929190818152602001838380828437600081840152601f19601f8201169050808301925050505050505091929192908035906020019064010000000081111561013a57600080fd5b82018360208201111561014c57600080fd5b8035906020019184600183028401116401000000008311171561016e57600080fd5b91908080601f016020809104026020016040519081016040528093929190818152602001838380828437600081840152601f19601f8201169050808301925050505050505091929192905050506103c4565b005b6101ee600480360360208110156101d857600080fd5b81019080803590602001909291905050506104a7565b005b61021c6004803603602081101561020657600080fd5b81019080803590602001909291905050506104e0565b60405180878152602001868152602001858152602001806020018415151515815260200180602001838103835286818151815260200191508051906020019080838360005b8381101561027c578082015181840152602081019050610261565b50505050905090810190601f1680156102a95780820380516001836020036101000a031916815260200191505b50838103825284818151815260200191508051906020019080838360005b838110156102e25780820151818401526020810190506102c7565b50505050905090810190601f16801561030f5780820380516001836020036101000a031916815260200191505b509850505050505050505060405180910390f35b61032b610666565b6040518080602001828103825283818151815260200191508051906020019080838360005b8381101561036b578082015181840152602081019050610350565b50505050905090810190601f1680156103985780820380516001836020036101000a031916815260200191505b509250505060405180910390f35b6103ae6106a3565b6040518082815260200191505060405180910390f35b60006040518060c001604052806000805490508152602001868152602001858152602001848152602001600115158152602001838152509080600181540180825580915050906001820390600052602060002090600602016000909192909190915060008201518160000155602082015181600101556040820151816002015560608201518160030190805190602001906104609291906106af565b5060808201518160040160006101000a81548160ff02191690831515021790555060a082015181600501908051906020019061049d9291906106af565b5050505050505050565b60008082815481106104b557fe5b906000526020600020906006020160040160006101000a81548160ff02191690831515021790555050565b600081815481106104ed57fe5b9060005260206000209060060201600091509050806000015490806001015490806002015490806003018054600181600116156101000203166002900480601f0160208091040260200160405190810160405280929190818152602001828054600181600116156101000203166002900480156105ab5780601f10610580576101008083540402835291602001916105ab565b820191906000526020600020905b81548152906001019060200180831161058e57829003601f168201915b5050505050908060040160009054906101000a900460ff1690806005018054600181600116156101000203166002900480601f01602080910402602001604051908101604052809291908181526020018280546001816001161561010002031660029004801561065c5780601f106106315761010080835404028352916020019161065c565b820191906000526020600020905b81548152906001019060200180831161063f57829003601f168201915b5050505050905086565b60606040518060400160405280601081526020017f564f54453a2048616c6c6f204e69636f00000000000000000000000000000000815250905090565b60008080549050905090565b828054600181600116156101000203166002900490600052602060002090601f016020900481019282601f106106f057805160ff191683800117855561071e565b8280016001018555821561071e579182015b8281111561071d578251825591602001919060010190610702565b5b50905061072b919061072f565b5090565b61075191905b8082111561074d576000816000905550600101610735565b5090565b9056fea265627a7a7231582058705faae5332db6c6356323ecf93a67ed883f1be6006841e3f56a89e4aba8d064736f6c63430005100032",
  "source": "pragma solidity >=0.4.22 <0.8.0;\n\ncontract PollManager {\n    struct Poll {\n        uint256 id;\n        uint256 rpId;\n        uint256 pqId;\n        string poll_contract_address;\n        bool open;\n        string timestamp;\n    }\n\n    Poll[] public polls;\n\n    constructor() public {\n        polls.push(Poll({id: 0, rpId: 0, pqId: 0, poll_contract_address: \"0x0\", open: false, timestamp: \"\"}));\n    }\n\n    function addPoll(uint256 _rpId, uint256 _pqId,  string memory addr, string memory _timestamp) public {\n        polls.push(Poll({id: polls.length, rpId: _rpId, pqId: _pqId, poll_contract_address: addr, open: true, timestamp: _timestamp}));\n    }\n\n    function closePoll(uint256 index) public {\n        polls[index].open = false;\n    }\n\n    function getPollsLength() public view returns (uint256) {\n        return polls.length;\n    }\n\n    function helloWorld() public pure returns (string memory) {\n        return \"VOTE: Hallo Nico\";\n    }\n}\n",
  "sourcePath": "/Users/michaelfrank/Documents/GitHub/github-blockchain-voting-extension/proof_of_concepts/base_blockchain_extension_interactions/contracts/PollManager.sol",
  "compiler": {
    "name": "solc",
    "version": "0.5.16+commit.9c3226ce.Emscripten.clang"
  },
  "schemaVersion": "3.2.4",
  "updatedAt": "2020-12-27T17:12:36.175Z",
  "networkType": "ethereum",
  "devdoc": {
    "methods": {}
  },
  "userdoc": {
    "methods": {}
  }
}