{
  "contractName": "PollManager",
  "abi": [
    {
      "inputs": [],
      "payable": false,
      "stateMutability": "nonpayable",
      "type": "constructor"
    },
    {
      "constant": true,
      "inputs": [
        {
          "internalType": "uint256",
          "name": "",
          "type": "uint256"
        }
      ],
      "name": "polls",
      "outputs": [
        {
          "internalType": "uint256",
          "name": "id",
          "type": "uint256"
        },
        {
          "internalType": "uint256",
          "name": "rpId",
          "type": "uint256"
        },
        {
          "internalType": "uint256",
          "name": "issueId",
          "type": "uint256"
        },
        {
          "internalType": "uint256",
          "name": "pqId",
          "type": "uint256"
        },
        {
          "internalType": "string",
          "name": "poll_contract_address",
          "type": "string"
        },
        {
          "internalType": "uint256",
          "name": "state",
          "type": "uint256"
        },
        {
          "internalType": "string",
          "name": "bountyTimestamp",
          "type": "string"
        },
        {
          "internalType": "string",
          "name": "deliverTimestamp",
          "type": "string"
        },
        {
          "internalType": "string",
          "name": "votingTimestamp",
          "type": "string"
        }
      ],
      "payable": false,
      "stateMutability": "view",
      "type": "function"
    },
    {
      "constant": false,
      "inputs": [
        {
          "internalType": "uint256",
          "name": "_rpId",
          "type": "uint256"
        },
        {
          "internalType": "uint256",
          "name": "_issueId",
          "type": "uint256"
        },
        {
          "internalType": "uint256",
          "name": "_pqId",
          "type": "uint256"
        },
        {
          "internalType": "string",
          "name": "addr",
          "type": "string"
        },
        {
          "internalType": "string",
          "name": "_deliverTimestamp",
          "type": "string"
        },
        {
          "internalType": "string",
          "name": "_votingTimestamp",
          "type": "string"
        },
        {
          "internalType": "string",
          "name": "_bountyTimestamp",
          "type": "string"
        }
      ],
      "name": "addPoll",
      "outputs": [],
      "payable": false,
      "stateMutability": "nonpayable",
      "type": "function"
    },
    {
      "constant": false,
      "inputs": [
        {
          "internalType": "uint256",
          "name": "index",
          "type": "uint256"
        },
        {
          "internalType": "string",
          "name": "_deliverTimestamp",
          "type": "string"
        },
        {
          "internalType": "string",
          "name": "_votingTimestamp",
          "type": "string"
        }
      ],
      "name": "initPollPhases",
      "outputs": [],
      "payable": false,
      "stateMutability": "nonpayable",
      "type": "function"
    },
    {
      "constant": false,
      "inputs": [
        {
          "internalType": "uint256",
          "name": "index",
          "type": "uint256"
        }
      ],
      "name": "cancelPoll",
      "outputs": [],
      "payable": false,
      "stateMutability": "nonpayable",
      "type": "function"
    },
    {
      "constant": false,
      "inputs": [
        {
          "internalType": "uint256",
          "name": "index",
          "type": "uint256"
        },
        {
          "internalType": "uint256",
          "name": "state",
          "type": "uint256"
        }
      ],
      "name": "updatePoll",
      "outputs": [],
      "payable": false,
      "stateMutability": "nonpayable",
      "type": "function"
    },
    {
      "constant": false,
      "inputs": [
        {
          "internalType": "uint256",
          "name": "index",
          "type": "uint256"
        },
        {
          "internalType": "uint256",
          "name": "pqId",
          "type": "uint256"
        }
      ],
      "name": "submitPullRequest",
      "outputs": [],
      "payable": false,
      "stateMutability": "nonpayable",
      "type": "function"
    },
    {
      "constant": true,
      "inputs": [],
      "name": "getPollsLength",
      "outputs": [
        {
          "internalType": "uint256",
          "name": "",
          "type": "uint256"
        }
      ],
      "payable": false,
      "stateMutability": "view",
      "type": "function"
    },
    {
      "constant": true,
      "inputs": [],
      "name": "helloWorld",
      "outputs": [
        {
          "internalType": "string",
          "name": "",
          "type": "string"
        }
      ],
      "payable": false,
      "stateMutability": "pure",
      "type": "function"
    }
  ],
  "bytecode": "0x60806040523480156200001157600080fd5b506000604051806101200160405280600081526020016000815260200160008152602001600081526020016040518060400160405280600381526020017f307830000000000000000000000000000000000000000000000000000000000081525081526020016000815260200160405180602001604052806000815250815260200160405180602001604052806000815250815260200160405180602001604052806000815250815250908060018154018082558091505090600182039060005260206000209060090201600090919290919091506000820151816000015560208201518160010155604082015181600201556060820151816003015560808201518160040190805190602001906200012c9291906200019e565b5060a0820151816005015560c0820151816006019080519060200190620001559291906200019e565b5060e0820151816007019080519060200190620001749291906200019e565b50610100820151816008019080519060200190620001949291906200019e565b505050506200024d565b828054600181600116156101000203166002900490600052602060002090601f016020900481019282601f10620001e157805160ff191683800117855562000212565b8280016001018555821562000212579182015b8281111562000211578251825591602001919060010190620001f4565b5b50905062000221919062000225565b5090565b6200024a91905b80821115620002465760008160009055506001016200022c565b5090565b90565b610e5a806200025d6000396000f3fe608060405234801561001057600080fd5b50600436106100885760003560e01c8063c605f76c1161005b578063c605f76c146105a9578063cf21708a1461062c578063d0ec160714610788578063d4f0ca1f146107b657610088565b80632746f2981461008d578063683f70b9146100c55780638d8a0452146100fd578063ac2f00741461039b575b600080fd5b6100c3600480360360408110156100a357600080fd5b8101908080359060200190929190803590602001909291905050506107d4565b005b6100fb600480360360408110156100db57600080fd5b8101908080359060200190929190803590602001909291905050506107fb565b005b610399600480360360e081101561011357600080fd5b810190808035906020019092919080359060200190929190803590602001909291908035906020019064010000000081111561014e57600080fd5b82018360208201111561016057600080fd5b8035906020019184600183028401116401000000008311171561018257600080fd5b91908080601f016020809104026020016040519081016040528093929190818152602001838380828437600081840152601f19601f820116905080830192505050505050509192919290803590602001906401000000008111156101e557600080fd5b8201836020820111156101f757600080fd5b8035906020019184600183028401116401000000008311171561021957600080fd5b91908080601f016020809104026020016040519081016040528093929190818152602001838380828437600081840152601f19601f8201169050808301925050505050505091929192908035906020019064010000000081111561027c57600080fd5b82018360208201111561028e57600080fd5b803590602001918460018302840111640100000000831117156102b057600080fd5b91908080601f016020809104026020016040519081016040528093929190818152602001838380828437600081840152601f19601f8201169050808301925050505050505091929192908035906020019064010000000081111561031357600080fd5b82018360208201111561032557600080fd5b8035906020019184600183028401116401000000008311171561034757600080fd5b91908080601f016020809104026020016040519081016040528093929190818152602001838380828437600081840152601f19601f820116905080830192505050505050509192919290505050610822565b005b6103c7600480360360208110156103b157600080fd5b8101908080359060200190929190505050610948565b604051808a81526020018981526020018881526020018781526020018060200186815260200180602001806020018060200185810385528a818151815260200191508051906020019080838360005b83811015610431578082015181840152602081019050610416565b50505050905090810190601f16801561045e5780820380516001836020036101000a031916815260200191505b50858103845288818151815260200191508051906020019080838360005b8381101561049757808201518184015260208101905061047c565b50505050905090810190601f1680156104c45780820380516001836020036101000a031916815260200191505b50858103835287818151815260200191508051906020019080838360005b838110156104fd5780820151818401526020810190506104e2565b50505050905090810190601f16801561052a5780820380516001836020036101000a031916815260200191505b50858103825286818151815260200191508051906020019080838360005b83811015610563578082015181840152602081019050610548565b50505050905090810190601f1680156105905780820380516001836020036101000a031916815260200191505b509d505050505050505050505050505060405180910390f35b6105b1610c03565b6040518080602001828103825283818151815260200191508051906020019080838360005b838110156105f15780820151818401526020810190506105d6565b50505050905090810190601f16801561061e5780820380516001836020036101000a031916815260200191505b509250505060405180910390f35b6107866004803603606081101561064257600080fd5b81019080803590602001909291908035906020019064010000000081111561066957600080fd5b82018360208201111561067b57600080fd5b8035906020019184600183028401116401000000008311171561069d57600080fd5b91908080601f016020809104026020016040519081016040528093929190818152602001838380828437600081840152601f19601f8201169050808301925050505050505091929192908035906020019064010000000081111561070057600080fd5b82018360208201111561071257600080fd5b8035906020019184600183028401116401000000008311171561073457600080fd5b91908080601f016020809104026020016040519081016040528093929190818152602001838380828437600081840152601f19601f820116905080830192505050505050509192919290505050610c40565b005b6107b46004803603602081101561079e57600080fd5b8101908080359060200190929190505050610cab565b005b6107be610cf4565b6040518082815260200191505060405180910390f35b80600083815481106107e257fe5b9060005260206000209060090201600301819055505050565b806000838154811061080957fe5b9060005260206000209060090201600501819055505050565b600060405180610120016040528060008054905081526020018981526020018881526020018781526020018681526020016001815260200183815260200185815260200184815250908060018154018082558091505090600182039060005260206000209060090201600090919290919091506000820151816000015560208201518160010155604082015181600201556060820151816003015560808201518160040190805190602001906108d9929190610d00565b5060a0820151816005015560c0820151816006019080519060200190610900929190610d00565b5060e082015181600701908051906020019061091d929190610d00565b5061010082015181600801908051906020019061093b929190610d00565b5050505050505050505050565b6000818154811061095557fe5b9060005260206000209060090201600091509050806000015490806001015490806002015490806003015490806004018054600181600116156101000203166002900480601f016020809104026020016040519081016040528092919081815260200182805460018160011615610100020316600290048015610a195780601f106109ee57610100808354040283529160200191610a19565b820191906000526020600020905b8154815290600101906020018083116109fc57829003601f168201915b505050505090806005015490806006018054600181600116156101000203166002900480601f016020809104026020016040519081016040528092919081815260200182805460018160011615610100020316600290048015610abd5780601f10610a9257610100808354040283529160200191610abd565b820191906000526020600020905b815481529060010190602001808311610aa057829003601f168201915b505050505090806007018054600181600116156101000203166002900480601f016020809104026020016040519081016040528092919081815260200182805460018160011615610100020316600290048015610b5b5780601f10610b3057610100808354040283529160200191610b5b565b820191906000526020600020905b815481529060010190602001808311610b3e57829003601f168201915b505050505090806008018054600181600116156101000203166002900480601f016020809104026020016040519081016040528092919081815260200182805460018160011615610100020316600290048015610bf95780601f10610bce57610100808354040283529160200191610bf9565b820191906000526020600020905b815481529060010190602001808311610bdc57829003601f168201915b5050505050905089565b60606040518060400160405280601081526020017f564f54453a2048616c6c6f204e69636f00000000000000000000000000000000815250905090565b8160008481548110610c4e57fe5b90600052602060002090600902016007019080519060200190610c72929190610d80565b508060008481548110610c8157fe5b90600052602060002090600902016008019080519060200190610ca5929190610d80565b50505050565b6000808281548110610cb957fe5b9060005260206000209060090201600201819055506000808281548110610cdc57fe5b90600052602060002090600902016005018190555050565b60008080549050905090565b828054600181600116156101000203166002900490600052602060002090601f016020900481019282601f10610d4157805160ff1916838001178555610d6f565b82800160010185558215610d6f579182015b82811115610d6e578251825591602001919060010190610d53565b5b509050610d7c9190610e00565b5090565b828054600181600116156101000203166002900490600052602060002090601f016020900481019282601f10610dc157805160ff1916838001178555610def565b82800160010185558215610def579182015b82811115610dee578251825591602001919060010190610dd3565b5b509050610dfc9190610e00565b5090565b610e2291905b80821115610e1e576000816000905550600101610e06565b5090565b9056fea265627a7a723158207b5ea47cb69a12c5db3bb661d63dad95784e8e652e96143226d46e107868fe5764736f6c63430005100032",
  "source": "pragma solidity >=0.4.22 <0.8.0;\n\ncontract PollManager {\n    struct Poll {\n        uint256 id;\n        uint256 rpId;\n        uint256 issueId;\n        uint256 pqId;\n        string poll_contract_address;\n        uint256 state;\n        string bountyTimestamp;\n        string deliverTimestamp;\n        string votingTimestamp;\n    }\n\n    Poll[] public polls;\n\n    constructor() public {\n        polls.push(\n            Poll({\n                id: 0,\n                rpId: 0,\n                issueId: 0,\n                pqId: 0,\n                poll_contract_address: \"0x0\",\n                state: 0,\n                deliverTimestamp: \"\",\n                votingTimestamp: \"\",\n                bountyTimestamp: \"\"\n            })\n        );\n    }\n\n    function addPoll(\n        uint256 _rpId,\n        uint256 _issueId,\n        uint256 _pqId,\n        string memory addr,\n        string memory _deliverTimestamp,\n        string memory _votingTimestamp,\n        string memory _bountyTimestamp\n    ) public {\n        polls.push(\n            Poll({\n                id: polls.length,\n                rpId: _rpId,\n                issueId: _issueId,\n                pqId: _pqId,\n                poll_contract_address: addr,\n                state: 1,\n                deliverTimestamp: _deliverTimestamp,\n                votingTimestamp: _votingTimestamp,\n                bountyTimestamp: _bountyTimestamp\n            })\n        );\n    }\n\n    function initPollPhases(uint256 index, string memory _deliverTimestamp, string memory _votingTimestamp) public {\n        polls[index].deliverTimestamp = _deliverTimestamp;\n        polls[index].votingTimestamp = _votingTimestamp;\n    }\n\n    function cancelPoll(uint256 index) public {\n        polls[index].issueId = 0;\n        polls[index].state = 0;\n    }\n\n    function updatePoll(uint256 index, uint256 state) public {\n        polls[index].state = state;\n    }\n\n    function submitPullRequest(uint256 index, uint256 pqId) public {\n        polls[index].pqId = pqId;\n    }\n\n    function getPollsLength() public view returns (uint256) {\n        return polls.length;\n    }\n\n    function helloWorld() public pure returns (string memory) {\n        return \"VOTE: Hallo Nico\";\n    }\n}\n",
  "sourcePath": "/Users/michaelfrank/Documents/GitHub/github-blockchain-voting-extension/proof_of_concepts/base_blockchain_extension_interactions/contracts/PollManager.sol",
  "compiler": {
    "name": "solc",
    "version": "0.5.16+commit.9c3226ce.Emscripten.clang"
  },
  "schemaVersion": "3.2.4",
  "updatedAt": "2021-02-28T19:03:26.489Z",
  "networkType": "ethereum",
  "devdoc": {
    "methods": {}
  },
  "userdoc": {
    "methods": {}
  }
}